{
  "_format": "hh-sol-artifact-1",
  "contractName": "Vesting",
  "sourceName": "contracts/Vesting.sol",
  "abi": [
    {
      "inputs": [
        {
          "internalType": "address",
          "name": "tokenContract",
          "type": "address"
        }
      ],
      "stateMutability": "nonpayable",
      "type": "constructor"
    },
    {
      "anonymous": false,
      "inputs": [
        {
          "indexed": false,
          "internalType": "address",
          "name": "sender",
          "type": "address"
        },
        {
          "indexed": false,
          "internalType": "uint256",
          "name": "amount",
          "type": "uint256"
        },
        {
          "indexed": false,
          "internalType": "uint256",
          "name": "releaseTime",
          "type": "uint256"
        }
      ],
      "name": "LogLockBoxDeposit",
      "type": "event"
    },
    {
      "anonymous": false,
      "inputs": [
        {
          "indexed": false,
          "internalType": "address",
          "name": "receiver",
          "type": "address"
        },
        {
          "indexed": false,
          "internalType": "uint256",
          "name": "amount",
          "type": "uint256"
        }
      ],
      "name": "LogLockBoxWithdrawal",
      "type": "event"
    },
    {
      "anonymous": false,
      "inputs": [
        {
          "indexed": true,
          "internalType": "address",
          "name": "previousOwner",
          "type": "address"
        },
        {
          "indexed": true,
          "internalType": "address",
          "name": "newOwner",
          "type": "address"
        }
      ],
      "name": "OwnershipTransferred",
      "type": "event"
    },
    {
      "inputs": [
        {
          "internalType": "address",
          "name": "beneficiary",
          "type": "address"
        },
        {
          "internalType": "uint256",
          "name": "amount",
          "type": "uint256"
        },
        {
          "internalType": "uint256",
          "name": "releaseTime",
          "type": "uint256"
        }
      ],
      "name": "deposit",
      "outputs": [
        {
          "internalType": "bool",
          "name": "success",
          "type": "bool"
        }
      ],
      "stateMutability": "nonpayable",
      "type": "function"
    },
    {
      "inputs": [
        {
          "internalType": "uint256",
          "name": "_amount",
          "type": "uint256"
        }
      ],
      "name": "emergencyWithdrawal",
      "outputs": [],
      "stateMutability": "nonpayable",
      "type": "function"
    },
    {
      "inputs": [],
      "name": "getAllLockboxDetails",
      "outputs": [
        {
          "internalType": "uint256[]",
          "name": "",
          "type": "uint256[]"
        },
        {
          "internalType": "address[]",
          "name": "",
          "type": "address[]"
        },
        {
          "internalType": "uint256[]",
          "name": "",
          "type": "uint256[]"
        },
        {
          "internalType": "uint256[]",
          "name": "",
          "type": "uint256[]"
        }
      ],
      "stateMutability": "view",
      "type": "function"
    },
    {
      "inputs": [
        {
          "internalType": "address",
          "name": "beneficiary",
          "type": "address"
        }
      ],
      "name": "getBeneficiaryIds",
      "outputs": [
        {
          "internalType": "uint256[]",
          "name": "",
          "type": "uint256[]"
        }
      ],
      "stateMutability": "view",
      "type": "function"
    },
    {
      "inputs": [
        {
          "internalType": "uint256",
          "name": "lockBoxNumber",
          "type": "uint256"
        }
      ],
      "name": "getLockboxDetail",
      "outputs": [
        {
          "internalType": "address",
          "name": "beneficiary",
          "type": "address"
        },
        {
          "internalType": "uint256",
          "name": "balance",
          "type": "uint256"
        },
        {
          "internalType": "uint256",
          "name": "releaseTime",
          "type": "uint256"
        }
      ],
      "stateMutability": "view",
      "type": "function"
    },
    {
      "inputs": [
        {
          "internalType": "uint256",
          "name": "",
          "type": "uint256"
        }
      ],
      "name": "lockBoxStructs",
      "outputs": [
        {
          "internalType": "address",
          "name": "beneficiary",
          "type": "address"
        },
        {
          "internalType": "uint256",
          "name": "balance",
          "type": "uint256"
        },
        {
          "internalType": "uint256",
          "name": "releaseTime",
          "type": "uint256"
        }
      ],
      "stateMutability": "view",
      "type": "function"
    },
    {
      "inputs": [],
      "name": "owner",
      "outputs": [
        {
          "internalType": "address",
          "name": "",
          "type": "address"
        }
      ],
      "stateMutability": "view",
      "type": "function"
    },
    {
      "inputs": [],
      "name": "renounceOwnership",
      "outputs": [],
      "stateMutability": "nonpayable",
      "type": "function"
    },
    {
      "inputs": [
        {
          "internalType": "address",
          "name": "newOwner",
          "type": "address"
        }
      ],
      "name": "transferOwnership",
      "outputs": [],
      "stateMutability": "nonpayable",
      "type": "function"
    },
    {
      "inputs": [
        {
          "internalType": "uint256",
          "name": "lockBoxNumber",
          "type": "uint256"
        }
      ],
      "name": "withdraw",
      "outputs": [
        {
          "internalType": "bool",
          "name": "success",
          "type": "bool"
        }
      ],
      "stateMutability": "nonpayable",
      "type": "function"
    }
  ],
  "bytecode": "0x60806040523480156200001157600080fd5b5060405162001916380380620019168339818101604052810190620000379190620001df565b60016000819055506200005f62000053620000a760201b60201c565b620000af60201b60201c565b80600260006101000a81548173ffffffffffffffffffffffffffffffffffffffff021916908373ffffffffffffffffffffffffffffffffffffffff1602179055505062000211565b600033905090565b6000600160009054906101000a900473ffffffffffffffffffffffffffffffffffffffff16905081600160006101000a81548173ffffffffffffffffffffffffffffffffffffffff021916908373ffffffffffffffffffffffffffffffffffffffff1602179055508173ffffffffffffffffffffffffffffffffffffffff168173ffffffffffffffffffffffffffffffffffffffff167f8be0079c531659141344cd1fd0a4f28419497f9722a3daafe3b4186f6b6457e060405160405180910390a35050565b600080fd5b600073ffffffffffffffffffffffffffffffffffffffff82169050919050565b6000620001a7826200017a565b9050919050565b620001b9816200019a565b8114620001c557600080fd5b50565b600081519050620001d981620001ae565b92915050565b600060208284031215620001f857620001f762000175565b5b60006200020884828501620001c8565b91505092915050565b6116f580620002216000396000f3fe608060405234801561001057600080fd5b506004361061009d5760003560e01c8063715018a611610066578063715018a6146101715780638da5cb5b1461017b578063be82615514610199578063c1f0693c146101cb578063f2fde38b146101fb5761009d565b806239522c146100a25780630efe6a8b146100be5780632e1a7d4d146100ee5780632ea0b4d01461011e5780633d8cf56f1461013f575b600080fd5b6100bc60048036038101906100b79190610f74565b610217565b005b6100d860048036038101906100d39190610fff565b610366565b6040516100e5919061106d565b60405180910390f35b61010860048036038101906101039190610f74565b61052f565b604051610115919061106d565b60405180910390f35b61012661076d565b6040516101369493929190611204565b60405180910390f35b61015960048036038101906101549190610f74565b6109f6565b60405161016893929190611283565b60405180910390f35b610179610a50565b005b610183610a64565b60405161019091906112ba565b60405180910390f35b6101b360048036038101906101ae9190610f74565b610a8e565b6040516101c293929190611283565b60405180910390f35b6101e560048036038101906101e091906112d5565b610af5565b6040516101f29190611302565b60405180910390f35b610215600480360381019061021091906112d5565b610cc6565b005b61021f610cda565b600260009054906101000a900473ffffffffffffffffffffffffffffffffffffffff1673ffffffffffffffffffffffffffffffffffffffff1663095ea7b330836040518363ffffffff1660e01b815260040161027c929190611324565b6020604051808303816000875af115801561029b573d6000803e3d6000fd5b505050506040513d601f19601f820116820180604052508101906102bf9190611379565b50600260009054906101000a900473ffffffffffffffffffffffffffffffffffffffff1673ffffffffffffffffffffffffffffffffffffffff166323b872dd3033846040518463ffffffff1660e01b815260040161031f939291906113a6565b6020604051808303816000875af115801561033e573d6000803e3d6000fd5b505050506040513d601f19601f820116820180604052508101906103629190611379565b5050565b6000600260009054906101000a900473ffffffffffffffffffffffffffffffffffffffff1673ffffffffffffffffffffffffffffffffffffffff166323b872dd3330866040518463ffffffff1660e01b81526004016103c7939291906113a6565b6020604051808303816000875af11580156103e6573d6000803e3d6000fd5b505050506040513d601f19601f8201168201806040525081019061040a9190611379565b50610413610f02565b84816000019073ffffffffffffffffffffffffffffffffffffffff16908173ffffffffffffffffffffffffffffffffffffffff16815250508381602001818152505082816040018181525050600381908060018154018082558091505060019003906000526020600020906003020160009091909190915060008201518160000160006101000a81548173ffffffffffffffffffffffffffffffffffffffff021916908373ffffffffffffffffffffffffffffffffffffffff160217905550602082015181600101556040820151816002015550507fcf2fafad2e64ab2802e3c57893f71b2645379029535db982282b4b24f4ff567a33858560405161051b93929190611283565b60405180910390a160019150509392505050565b6000610539610d58565b60006003838154811061054f5761054e6113dd565b5b9060005260206000209060030201905042816002015411156105a6576040517f08c379a000000000000000000000000000000000000000000000000000000000815260040161059d9061148f565b60405180910390fd5b60008160010154905060008260010181905550600260009054906101000a900473ffffffffffffffffffffffffffffffffffffffff1673ffffffffffffffffffffffffffffffffffffffff1663095ea7b330836040518363ffffffff1660e01b8152600401610616929190611324565b6020604051808303816000875af1158015610635573d6000803e3d6000fd5b505050506040513d601f19601f820116820180604052508101906106599190611379565b50600260009054906101000a900473ffffffffffffffffffffffffffffffffffffffff1673ffffffffffffffffffffffffffffffffffffffff166323b872dd308460000160009054906101000a900473ffffffffffffffffffffffffffffffffffffffff16846040518463ffffffff1660e01b81526004016106dd939291906113a6565b6020604051808303816000875af11580156106fc573d6000803e3d6000fd5b505050506040513d601f19601f820116820180604052508101906107209190611379565b507f4ee0bce2f3dfb53dc0564ce5a7e1934da5c7866b06ba77f86c397b7b976a31443382604051610752929190611324565b60405180910390a1600192505050610768610da7565b919050565b606080606080600060038054905067ffffffffffffffff811115610794576107936114af565b5b6040519080825280602002602001820160405280156107c25781602001602082028036833780820191505090505b509050600060038054905067ffffffffffffffff8111156107e6576107e56114af565b5b6040519080825280602002602001820160405280156108145781602001602082028036833780820191505090505b509050600060038054905067ffffffffffffffff811115610838576108376114af565b5b6040519080825280602002602001820160405280156108665781602001602082028036833780820191505090505b509050600060038054905067ffffffffffffffff81111561088a576108896114af565b5b6040519080825280602002602001820160405280156108b85781602001602082028036833780820191505090505b50905060005b6003805490508110156109df576000600382815481106108e1576108e06113dd565b5b9060005260206000209060030201905081868381518110610905576109046113dd565b5b6020026020010181815250508060000160009054906101000a900473ffffffffffffffffffffffffffffffffffffffff16858381518110610949576109486113dd565b5b602002602001019073ffffffffffffffffffffffffffffffffffffffff16908173ffffffffffffffffffffffffffffffffffffffff1681525050806001015484838151811061099b5761099a6113dd565b5b60200260200101818152505080600201548383815181106109bf576109be6113dd565b5b6020026020010181815250505080806109d79061150d565b9150506108be565b508383838397509750975097505050505090919293565b60038181548110610a0657600080fd5b90600052602060002090600302016000915090508060000160009054906101000a900473ffffffffffffffffffffffffffffffffffffffff16908060010154908060020154905083565b610a58610cda565b610a626000610db1565b565b6000600160009054906101000a900473ffffffffffffffffffffffffffffffffffffffff16905090565b60008060008060038581548110610aa857610aa76113dd565b5b906000526020600020906003020190508060000160009054906101000a900473ffffffffffffffffffffffffffffffffffffffff1681600101548260020154935093509350509193909250565b6060600060038054905067ffffffffffffffff811115610b1857610b176114af565b5b604051908082528060200260200182016040528015610b465781602001602082028036833780820191505090505b5090506000805b600380549050811015610c14578473ffffffffffffffffffffffffffffffffffffffff1660038281548110610b8557610b846113dd565b5b906000526020600020906003020160000160009054906101000a900473ffffffffffffffffffffffffffffffffffffffff1673ffffffffffffffffffffffffffffffffffffffff1603610c015780838381518110610be657610be56113dd565b5b6020026020010181815250508180610bfd9061150d565b9250505b8080610c0c9061150d565b915050610b4d565b5060008167ffffffffffffffff811115610c3157610c306114af565b5b604051908082528060200260200182016040528015610c5f5781602001602082028036833780820191505090505b50905060005b82811015610cba57838181518110610c8057610c7f6113dd565b5b6020026020010151828281518110610c9b57610c9a6113dd565b5b6020026020010181815250508080610cb29061150d565b915050610c65565b50809350505050919050565b610cce610cda565b610cd781610e77565b50565b610ce2610efa565b73ffffffffffffffffffffffffffffffffffffffff16610d00610a64565b73ffffffffffffffffffffffffffffffffffffffff1614610d56576040517f08c379a0000000000000000000000000000000000000000000000000000000008152600401610d4d906115a1565b60405180910390fd5b565b600260005403610d9d576040517f08c379a0000000000000000000000000000000000000000000000000000000008152600401610d949061160d565b60405180910390fd5b6002600081905550565b6001600081905550565b6000600160009054906101000a900473ffffffffffffffffffffffffffffffffffffffff16905081600160006101000a81548173ffffffffffffffffffffffffffffffffffffffff021916908373ffffffffffffffffffffffffffffffffffffffff1602179055508173ffffffffffffffffffffffffffffffffffffffff168173ffffffffffffffffffffffffffffffffffffffff167f8be0079c531659141344cd1fd0a4f28419497f9722a3daafe3b4186f6b6457e060405160405180910390a35050565b610e7f610cda565b600073ffffffffffffffffffffffffffffffffffffffff168173ffffffffffffffffffffffffffffffffffffffff1603610eee576040517f08c379a0000000000000000000000000000000000000000000000000000000008152600401610ee59061169f565b60405180910390fd5b610ef781610db1565b50565b600033905090565b6040518060600160405280600073ffffffffffffffffffffffffffffffffffffffff16815260200160008152602001600081525090565b600080fd5b6000819050919050565b610f5181610f3e565b8114610f5c57600080fd5b50565b600081359050610f6e81610f48565b92915050565b600060208284031215610f8a57610f89610f39565b5b6000610f9884828501610f5f565b91505092915050565b600073ffffffffffffffffffffffffffffffffffffffff82169050919050565b6000610fcc82610fa1565b9050919050565b610fdc81610fc1565b8114610fe757600080fd5b50565b600081359050610ff981610fd3565b92915050565b60008060006060848603121561101857611017610f39565b5b600061102686828701610fea565b935050602061103786828701610f5f565b925050604061104886828701610f5f565b9150509250925092565b60008115159050919050565b61106781611052565b82525050565b6000602082019050611082600083018461105e565b92915050565b600081519050919050565b600082825260208201905092915050565b6000819050602082019050919050565b6110bd81610f3e565b82525050565b60006110cf83836110b4565b60208301905092915050565b6000602082019050919050565b60006110f382611088565b6110fd8185611093565b9350611108836110a4565b8060005b8381101561113957815161112088826110c3565b975061112b836110db565b92505060018101905061110c565b5085935050505092915050565b600081519050919050565b600082825260208201905092915050565b6000819050602082019050919050565b61117b81610fc1565b82525050565b600061118d8383611172565b60208301905092915050565b6000602082019050919050565b60006111b182611146565b6111bb8185611151565b93506111c683611162565b8060005b838110156111f75781516111de8882611181565b97506111e983611199565b9250506001810190506111ca565b5085935050505092915050565b6000608082019050818103600083015261121e81876110e8565b9050818103602083015261123281866111a6565b9050818103604083015261124681856110e8565b9050818103606083015261125a81846110e8565b905095945050505050565b61126e81610fc1565b82525050565b61127d81610f3e565b82525050565b60006060820190506112986000830186611265565b6112a56020830185611274565b6112b26040830184611274565b949350505050565b60006020820190506112cf6000830184611265565b92915050565b6000602082840312156112eb576112ea610f39565b5b60006112f984828501610fea565b91505092915050565b6000602082019050818103600083015261131c81846110e8565b905092915050565b60006040820190506113396000830185611265565b6113466020830184611274565b9392505050565b61135681611052565b811461136157600080fd5b50565b6000815190506113738161134d565b92915050565b60006020828403121561138f5761138e610f39565b5b600061139d84828501611364565b91505092915050565b60006060820190506113bb6000830186611265565b6113c86020830185611265565b6113d56040830184611274565b949350505050565b7f4e487b7100000000000000000000000000000000000000000000000000000000600052603260045260246000fd5b600082825260208201905092915050565b7f56657374696e673a2063757272656e742074696d65206973206265666f72652060008201527f72656c656173652074696d650000000000000000000000000000000000000000602082015250565b6000611479602c8361140c565b91506114848261141d565b604082019050919050565b600060208201905081810360008301526114a88161146c565b9050919050565b7f4e487b7100000000000000000000000000000000000000000000000000000000600052604160045260246000fd5b7f4e487b7100000000000000000000000000000000000000000000000000000000600052601160045260246000fd5b600061151882610f3e565b91507fffffffffffffffffffffffffffffffffffffffffffffffffffffffffffffffff820361154a576115496114de565b5b600182019050919050565b7f4f776e61626c653a2063616c6c6572206973206e6f7420746865206f776e6572600082015250565b600061158b60208361140c565b915061159682611555565b602082019050919050565b600060208201905081810360008301526115ba8161157e565b9050919050565b7f5265656e7472616e637947756172643a207265656e7472616e742063616c6c00600082015250565b60006115f7601f8361140c565b9150611602826115c1565b602082019050919050565b60006020820190508181036000830152611626816115ea565b9050919050565b7f4f776e61626c653a206e6577206f776e657220697320746865207a65726f206160008201527f6464726573730000000000000000000000000000000000000000000000000000602082015250565b600061168960268361140c565b91506116948261162d565b604082019050919050565b600060208201905081810360008301526116b88161167c565b905091905056fea264697066735822122007cc6b45adf5407747c1e4606551d0293b1f44921d7028be099e164c623ae7b564736f6c634300080d0033",
  "linkReferences": {},
  "deployedLinkReferences": {}
}